{"abi":[{"type":"constructor","inputs":[],"stateMutability":"nonpayable"},{"type":"function","name":"approve","inputs":[],"outputs":[],"stateMutability":"nonpayable"},{"type":"function","name":"balances","inputs":[{"name":"","type":"address","internalType":"address"}],"outputs":[{"name":"","type":"uint256","internalType":"uint256"}],"stateMutability":"view"},{"type":"function","name":"fixedArray","inputs":[{"name":"","type":"uint256","internalType":"uint256"}],"outputs":[{"name":"","type":"uint256","internalType":"uint256"}],"stateMutability":"view"},{"type":"function","name":"getValue","inputs":[],"outputs":[{"name":"","type":"uint256","internalType":"uint256"}],"stateMutability":"pure"},{"type":"function","name":"myAddress","inputs":[],"outputs":[{"name":"","type":"address","internalType":"address"}],"stateMutability":"view"},{"type":"function","name":"myArray","inputs":[{"name":"","type":"uint256","internalType":"uint256"}],"outputs":[{"name":"","type":"uint256","internalType":"uint256"}],"stateMutability":"view"},{"type":"function","name":"myBool","inputs":[],"outputs":[{"name":"","type":"bool","internalType":"bool"}],"stateMutability":"view"},{"type":"function","name":"myBytes","inputs":[],"outputs":[{"name":"","type":"bytes","internalType":"bytes"}],"stateMutability":"view"},{"type":"function","name":"myInt","inputs":[],"outputs":[{"name":"","type":"int256","internalType":"int256"}],"stateMutability":"view"},{"type":"function","name":"myString","inputs":[],"outputs":[{"name":"","type":"string","internalType":"string"}],"stateMutability":"view"},{"type":"function","name":"myStringArray","inputs":[{"name":"","type":"uint256","internalType":"uint256"}],"outputs":[{"name":"","type":"string","internalType":"string"}],"stateMutability":"view"},{"type":"function","name":"myUint","inputs":[],"outputs":[{"name":"","type":"uint256","internalType":"uint256"}],"stateMutability":"view"},{"type":"function","name":"myUint8","inputs":[],"outputs":[{"name":"","type":"uint8","internalType":"uint8"}],"stateMutability":"view"},{"type":"function","name":"setUser","inputs":[{"name":"_id","type":"uint256","internalType":"uint256"},{"name":"_name","type":"string","internalType":"string"}],"outputs":[],"stateMutability":"nonpayable"},{"type":"function","name":"status","inputs":[],"outputs":[{"name":"","type":"uint8","internalType":"enum L02_Variables.Status"}],"stateMutability":"view"},{"type":"function","name":"user","inputs":[],"outputs":[{"name":"id","type":"uint256","internalType":"uint256"},{"name":"name","type":"string","internalType":"string"},{"name":"isActive","type":"bool","internalType":"bool"}],"stateMutability":"view"}],"bytecode":{"object":"0x608060405260015f55600260015f6101000a81548160ff021916908360ff1602179055507ffffffffffffffffffffffffffffffffffffffffffffffffffffffffffffffffc600255600160035f6101000a81548160ff02191690831515021790555033600360016101000a81548173ffffffffffffffffffffffffffffffffffffffff021916908373ffffffffffffffffffffffffffffffffffffffff1602179055506040518060400160405280601381526020017f48656c6c6f2066726f6d20536f6c696469747900000000000000000000000000815250600490816100e69190610551565b506040518060400160405280600381526020017f41424300000000000000000000000000000000000000000000000000000000008152506005908161012b9190610685565b506040518060600160405280600160ff168152602001600260ff168152602001600360ff1681525060069081610161919061088a565b5060405180606001604052806040518060400160405280600581526020017f41646e616e00000000000000000000000000000000000000000000000000000081525081526020016040518060400160405280600881526020017f416264756c6c616800000000000000000000000000000000000000000000000081525081526020016040518060400160405280600481526020017f53616469000000000000000000000000000000000000000000000000000000008152508152506007908161022a9190610be2565b506040518060600160405280600a60ff168152602001601460ff168152602001601e60ff16815250600890816102609190610cda565b505f600f5f6101000a81548160ff0219169083600281111561028557610284610d5e565b5b02179055506001601055600260115f6101000a81548160ff021916908360ff16021790555060046012553480156102ba575f5ffd5b506064600b5f3373ffffffffffffffffffffffffffffffffffffffff1673ffffffffffffffffffffffffffffffffffffffff1681526020019081526020015f2081905550610d8b565b5f81519050919050565b7f4e487b71000000000000000000000000000000000000000000000000000000005f52604160045260245ffd5b7f4e487b71000000000000000000000000000000000000000000000000000000005f52602260045260245ffd5b5f600282049050600182168061037e57607f821691505b6020821081036103915761039061033a565b5b50919050565b5f819050815f5260205f209050919050565b5f6020601f8301049050919050565b5f82821b905092915050565b5f600883026103f37fffffffffffffffffffffffffffffffffffffffffffffffffffffffffffffffff826103b8565b6103fd86836103b8565b95508019841693508086168417925050509392505050565b5f819050919050565b5f819050919050565b5f61044161043c61043784610415565b61041e565b610415565b9050919050565b5f819050919050565b61045a83610427565b61046e61046682610448565b8484546103c4565b825550505050565b5f5f905090565b610485610476565b610490818484610451565b505050565b5f5b828110156104b6576104ab5f82840161047d565b600181019050610497565b505050565b601f8211156105095782821115610508576104d581610397565b6104de836103a9565b6104e7856103a9565b60208610156104f4575f90505b80830161050382840382610495565b505050505b5b505050565b5f82821c905092915050565b5f6105295f198460080261050e565b1980831691505092915050565b5f610541838361051a565b9150826002028217905092915050565b61055a82610303565b67ffffffffffffffff8111156105735761057261030d565b5b61057d8254610367565b6105888282856104bb565b5f60209050601f8311600181146105b9575f84156105a7578287015190505b6105b18582610536565b865550610618565b601f1984166105c786610397565b5f5b828110156105ee578489015182556001820191506020850194506020810190506105c9565b8683101561060b5784890151610607601f89168261051a565b8355505b6001600288020188555050505b505050505050565b5f819050815f5260205f209050919050565b601f821115610680578282111561067f5761064c81610620565b610655836103a9565b61065e856103a9565b602086101561066b575f90505b80830161067a82840382610495565b505050505b5b505050565b61068e82610303565b67ffffffffffffffff8111156106a7576106a661030d565b5b6106b18254610367565b6106bc828285610632565b5f60209050601f8311600181146106ed575f84156106db578287015190505b6106e58582610536565b86555061074c565b601f1984166106fb86610620565b5f5b82811015610722578489015182556001820191506020850194506020810190506106fd565b8683101561073f578489015161073b601f89168261051a565b8355505b6001600288020188555050505b505050505050565b5f81549050919050565b5f8190506001806001038301049050919050565b5f819050815f5260205f209050919050565b5f5b828110156107a55761079a5f82840161047d565b600181019050610786565b505050565b6107da7fffffffffffffffffffffffffffffffffffffffffffffffffffffffffffffffff8360200360080261050e565b815481168255505050565b8183101561081c576107f68261075e565b6107ff8461075e565b61080883610772565b81810161081783850382610784565b505050505b505050565b6801000000000000000082111561083b5761083a61030d565b5b61084481610754565b8282556108528382846107e5565b505050565b5f60039050919050565b5f60ff82169050919050565b5f6108788251610861565b80915050919050565b5f819050919050565b61089382610857565b67ffffffffffffffff8111156108ac576108ab61030d565b5b6108b68183610821565b6108bf83610881565b6108c883610772565b600183045f5b81811015610905575f6108e08561086d565b6108e981610448565b80925060208701965050508082850155506001810190506108ce565b50505050505050565b5f819050919050565b5f81549050919050565b5f8190506001806001038301049050919050565b5f819050815f5260205f209050919050565b61095081610397565b61095b838254610536565b8083555f825550505050565b602084105f81146109c257601f84116001811461098f576109888685610536565b83556109bc565b61099883610397565b6109b060016109a6886103a9565b0360018301610495565b6109ba8785610947565b505b50610a1c565b6109cb856103a9565b6109d4856103a9565b6109dd84610397565b828101601f891680156109f8576109f781600184036107aa565b5b84841115610a0d57610a0c85850383610495565b5b60018a60020217875550505050505b5050505050565b68010000000000000000841115610a3d57610a3c61030d565b5b602083105f8114610a8657602085105f8114610a6457610a5d8685610536565b8355610a80565b8360ff1916935083610a7584610397565b556001866002020183555b50610a90565b6001856002020182555b5050505050565b8054610aa281610367565b80841115610ab757610ab684828486610a23565b5b80841015610acc57610acb84828486610967565b5b50505050565b610adc5f82610a97565b50565b7f4e487b71000000000000000000000000000000000000000000000000000000005f525f60045260245ffd5b5f8214610b1b57610b1a610adf565b5b610b2481610ad2565b5050565b5f5b82811015610b4957610b3e5f828401610b0b565b600181019050610b2a565b505050565b81831015610b8557610b5f82610921565b610b6884610921565b610b7183610935565b818101610b8083850382610b28565b505050505b505050565b68010000000000000000821115610ba457610ba361030d565b5b610bad81610917565b828255610bbb838284610b4e565b505050565b5f60039050919050565b5f81519050919050565b610bde8282610551565b5050565b610beb82610bc0565b610bf58183610b8a565b610bfe8361090e565b610c0783610935565b5f5b83811015610c3c57610c1a83610bca565b610c248184610bd4565b60208401935060018301925050600181019050610c09565b505050505050565b5f60039050919050565b5f8190506001806001038301049050919050565b5f819050919050565b81831015610ca257610c7c82610c4e565b610c8584610c4e565b610c8e83610c62565b818101610c9d83850382610784565b505050505b505050565b68010000000000000000821115610cc157610cc061030d565b5b610cca81610c44565b610cd5838284610c6b565b505050565b610ce382610857565b67ffffffffffffffff811115610cfc57610cfb61030d565b5b610d068183610ca7565b610d0f83610881565b610d1883610c62565b600183045f5b81811015610d55575f610d308561086d565b610d3981610448565b8092506020870196505050808285015550600181019050610d1e565b50505050505050565b7f4e487b71000000000000000000000000000000000000000000000000000000005f52602160045260245ffd5b610f0e80610d985f395ff3fe608060405234801561000f575f5ffd5b50600436106100fe575f3560e01c80634f8632ba116100955780639a5009ac116100645780639a5009ac14610268578063aa3546d914610298578063cc3e57d9146102c8578063e2a4b2af146102f8576100fe565b80634f8632ba146101f05780636deecdbe14610210578063712f46021461022e57806394b670b61461024c576100fe565b806326b85ee1116100d157806326b85ee11461016657806327e235e3146101845780632cb777a6146101b4578063492bfa18146101d2576100fe565b806306540f7e1461010257806312424e3f14610120578063200d2ed21461012a5780632096525514610148575b5f5ffd5b61010a610316565b60405161011791906106e7565b60405180910390f35b61012861031b565b005b610132610347565b60405161013f9190610773565b60405180910390f35b610150610359565b60405161015d91906106e7565b60405180910390f35b61016e610366565b60405161017b91906107cb565b60405180910390f35b61019e6004803603810190610199919061081f565b61038c565b6040516101ab91906106e7565b60405180910390f35b6101bc6103a1565b6040516101c99190610862565b60405180910390f35b6101da6103a7565b6040516101e791906108eb565b60405180910390f35b6101f8610433565b60405161020793929190610925565b60405180910390f35b6102186104dc565b6040516102259190610961565b60405180910390f35b6102366104ee565b60405161024391906109cc565b60405180910390f35b61026660048036038101906102619190610b42565b61057a565b005b610282600480360381019061027d9190610b9c565b6105de565b60405161028f91906106e7565b60405180910390f35b6102b260048036038101906102ad9190610b9c565b6105f7565b6040516102bf91906108eb565b60405180910390f35b6102e260048036038101906102dd9190610b9c565b61069d565b6040516102ef91906106e7565b60405180910390f35b6103006106bd565b60405161030d9190610be2565b60405180910390f35b5f5481565b6001600f5f6101000a81548160ff021916908360028111156103405761033f610700565b5b0217905550565b600f5f9054906101000a900460ff1681565b5f5f600190508091505090565b600360019054906101000a900473ffffffffffffffffffffffffffffffffffffffff1681565b600b602052805f5260405f205f915090505481565b60025481565b600480546103b490610c28565b80601f01602080910402602001604051908101604052809291908181526020018280546103e090610c28565b801561042b5780601f106104025761010080835404028352916020019161042b565b820191905f5260205f20905b81548152906001019060200180831161040e57829003601f168201915b505050505081565b600c805f01549080600101805461044990610c28565b80601f016020809104026020016040519081016040528092919081815260200182805461047590610c28565b80156104c05780601f10610497576101008083540402835291602001916104c0565b820191905f5260205f20905b8154815290600101906020018083116104a357829003601f168201915b505050505090806002015f9054906101000a900460ff16905083565b60035f9054906101000a900460ff1681565b600580546104fb90610c28565b80601f016020809104026020016040519081016040528092919081815260200182805461052790610c28565b80156105725780601f1061054957610100808354040283529160200191610572565b820191905f5260205f20905b81548152906001019060200180831161055557829003601f168201915b505050505081565b604051806060016040528083815260200182815260200160011515815250600c5f820151815f015560208201518160010190816105b79190610e09565b506040820151816002015f6101000a81548160ff0219169083151502179055509050505050565b600881600381106105ed575f80fd5b015f915090505481565b60078181548110610606575f80fd5b905f5260205f20015f91509050805461061e90610c28565b80601f016020809104026020016040519081016040528092919081815260200182805461064a90610c28565b80156106955780601f1061066c57610100808354040283529160200191610695565b820191905f5260205f20905b81548152906001019060200180831161067857829003601f168201915b505050505081565b600681815481106106ac575f80fd5b905f5260205f20015f915090505481565b60015f9054906101000a900460ff1681565b5f819050919050565b6106e1816106cf565b82525050565b5f6020820190506106fa5f8301846106d8565b92915050565b7f4e487b71000000000000000000000000000000000000000000000000000000005f52602160045260245ffd5b6003811061073e5761073d610700565b5b50565b5f81905061074e8261072d565b919050565b5f61075d82610741565b9050919050565b61076d81610753565b82525050565b5f6020820190506107865f830184610764565b92915050565b5f73ffffffffffffffffffffffffffffffffffffffff82169050919050565b5f6107b58261078c565b9050919050565b6107c5816107ab565b82525050565b5f6020820190506107de5f8301846107bc565b92915050565b5f604051905090565b5f5ffd5b5f5ffd5b6107fe816107ab565b8114610808575f5ffd5b50565b5f81359050610819816107f5565b92915050565b5f60208284031215610834576108336107ed565b5b5f6108418482850161080b565b91505092915050565b5f819050919050565b61085c8161084a565b82525050565b5f6020820190506108755f830184610853565b92915050565b5f81519050919050565b5f82825260208201905092915050565b8281835e5f83830152505050565b5f601f19601f8301169050919050565b5f6108bd8261087b565b6108c78185610885565b93506108d7818560208601610895565b6108e0816108a3565b840191505092915050565b5f6020820190508181035f83015261090381846108b3565b905092915050565b5f8115159050919050565b61091f8161090b565b82525050565b5f6060820190506109385f8301866106d8565b818103602083015261094a81856108b3565b90506109596040830184610916565b949350505050565b5f6020820190506109745f830184610916565b92915050565b5f81519050919050565b5f82825260208201905092915050565b5f61099e8261097a565b6109a88185610984565b93506109b8818560208601610895565b6109c1816108a3565b840191505092915050565b5f6020820190508181035f8301526109e48184610994565b905092915050565b6109f5816106cf565b81146109ff575f5ffd5b50565b5f81359050610a10816109ec565b92915050565b5f5ffd5b5f5ffd5b7f4e487b71000000000000000000000000000000000000000000000000000000005f52604160045260245ffd5b610a54826108a3565b810181811067ffffffffffffffff82111715610a7357610a72610a1e565b5b80604052505050565b5f610a856107e4565b9050610a918282610a4b565b919050565b5f67ffffffffffffffff821115610ab057610aaf610a1e565b5b610ab9826108a3565b9050602081019050919050565b828183375f83830152505050565b5f610ae6610ae184610a96565b610a7c565b905082815260208101848484011115610b0257610b01610a1a565b5b610b0d848285610ac6565b509392505050565b5f82601f830112610b2957610b28610a16565b5b8135610b39848260208601610ad4565b91505092915050565b5f5f60408385031215610b5857610b576107ed565b5b5f610b6585828601610a02565b925050602083013567ffffffffffffffff811115610b8657610b856107f1565b5b610b9285828601610b15565b9150509250929050565b5f60208284031215610bb157610bb06107ed565b5b5f610bbe84828501610a02565b91505092915050565b5f60ff82169050919050565b610bdc81610bc7565b82525050565b5f602082019050610bf55f830184610bd3565b92915050565b7f4e487b71000000000000000000000000000000000000000000000000000000005f52602260045260245ffd5b5f6002820490506001821680610c3f57607f821691505b602082108103610c5257610c51610bfb565b5b50919050565b5f819050815f5260205f209050919050565b5f6020601f8301049050919050565b5f82821b905092915050565b5f60088302610cb47fffffffffffffffffffffffffffffffffffffffffffffffffffffffffffffffff82610c79565b610cbe8683610c79565b95508019841693508086168417925050509392505050565b5f819050919050565b5f610cf9610cf4610cef846106cf565b610cd6565b6106cf565b9050919050565b5f819050919050565b610d1283610cdf565b610d26610d1e82610d00565b848454610c85565b825550505050565b5f5f905090565b610d3d610d2e565b610d48818484610d09565b505050565b5f5b82811015610d6e57610d635f828401610d35565b600181019050610d4f565b505050565b601f821115610dc15782821115610dc057610d8d81610c58565b610d9683610c6a565b610d9f85610c6a565b6020861015610dac575f90505b808301610dbb82840382610d4d565b505050505b5b505050565b5f82821c905092915050565b5f610de15f1984600802610dc6565b1980831691505092915050565b5f610df98383610dd2565b9150826002028217905092915050565b610e128261087b565b67ffffffffffffffff811115610e2b57610e2a610a1e565b5b610e358254610c28565b610e40828285610d73565b5f60209050601f831160018114610e71575f8415610e5f578287015190505b610e698582610dee565b865550610ed0565b601f198416610e7f86610c58565b5f5b82811015610ea657848901518255600182019150602085019450602081019050610e81565b86831015610ec35784890151610ebf601f891682610dd2565b8355505b6001600288020188555050505b50505050505056fea264697066735822122028b9853efe01e7c874f5bb0008ccba72dc9418a437c7afd4cd5f9416984aaba264736f6c63430008210033","linkReferences":{}},"methodIdentifiers":{"approve()":"12424e3f","balances(address)":"27e235e3","fixedArray(uint256)":"9a5009ac","getValue()":"20965255","myAddress()":"26b85ee1","myArray(uint256)":"cc3e57d9","myBool()":"6deecdbe","myBytes()":"712f4602","myInt()":"2cb777a6","myString()":"492bfa18","myStringArray(uint256)":"aa3546d9","myUint()":"06540f7e","myUint8()":"e2a4b2af","setUser(uint256,string)":"94b670b6","status()":"200d2ed2","user()":"4f8632ba"},"id":20}