{"abi":[{"type":"constructor","inputs":[],"stateMutability":"nonpayable"},{"type":"function","name":"addBook","inputs":[{"name":"_id","type":"int256","internalType":"int256"},{"name":"_title","type":"string","internalType":"string"},{"name":"_author","type":"string","internalType":"string"}],"outputs":[],"stateMutability":"nonpayable"},{"type":"function","name":"addMyBook","inputs":[{"name":"_id","type":"int256","internalType":"int256"},{"name":"_title","type":"string","internalType":"string"},{"name":"_author","type":"string","internalType":"string"}],"outputs":[],"stateMutability":"nonpayable"},{"type":"function","name":"books","inputs":[{"name":"","type":"int256","internalType":"int256"}],"outputs":[{"name":"title","type":"string","internalType":"string"},{"name":"author","type":"string","internalType":"string"}],"stateMutability":"view"},{"type":"function","name":"myBook","inputs":[{"name":"","type":"address","internalType":"address"},{"name":"","type":"int256","internalType":"int256"}],"outputs":[{"name":"title","type":"string","internalType":"string"},{"name":"author","type":"string","internalType":"string"}],"stateMutability":"view"},{"type":"function","name":"names","inputs":[{"name":"","type":"int256","internalType":"int256"}],"outputs":[{"name":"","type":"string","internalType":"string"}],"stateMutability":"view"}],"bytecode":{"object":"0x608060405234801561000f575f5ffd5b506040518060400160405280600581526020017f41646e616e0000000000000000000000000000000000000000000000000000008152505f5f5f81526020019081526020015f209081610062919061035e565b506040518060400160405280600881526020017f416264756c6c61680000000000000000000000000000000000000000000000008152505f5f600181526020019081526020015f2090816100b6919061035e565b506040518060400160405280600481526020017f53616469000000000000000000000000000000000000000000000000000000008152505f5f600281526020019081526020015f20908161010a919061035e565b5061042d565b5f81519050919050565b7f4e487b71000000000000000000000000000000000000000000000000000000005f52604160045260245ffd5b7f4e487b71000000000000000000000000000000000000000000000000000000005f52602260045260245ffd5b5f600282049050600182168061018b57607f821691505b60208210810361019e5761019d610147565b5b50919050565b5f819050815f5260205f209050919050565b5f6020601f8301049050919050565b5f82821b905092915050565b5f600883026102007fffffffffffffffffffffffffffffffffffffffffffffffffffffffffffffffff826101c5565b61020a86836101c5565b95508019841693508086168417925050509392505050565b5f819050919050565b5f819050919050565b5f61024e61024961024484610222565b61022b565b610222565b9050919050565b5f819050919050565b61026783610234565b61027b61027382610255565b8484546101d1565b825550505050565b5f5f905090565b610292610283565b61029d81848461025e565b505050565b5f5b828110156102c3576102b85f82840161028a565b6001810190506102a4565b505050565b601f8211156103165782821115610315576102e2816101a4565b6102eb836101b6565b6102f4856101b6565b6020861015610301575f90505b808301610310828403826102a2565b505050505b5b505050565b5f82821c905092915050565b5f6103365f198460080261031b565b1980831691505092915050565b5f61034e8383610327565b9150826002028217905092915050565b61036782610110565b67ffffffffffffffff8111156103805761037f61011a565b5b61038a8254610174565b6103958282856102c8565b5f60209050601f8311600181146103c6575f84156103b4578287015190505b6103be8582610343565b865550610425565b601f1984166103d4866101a4565b5f5b828110156103fb578489015182556001820191506020850194506020810190506103d6565b868310156104185784890151610414601f891682610327565b8355505b6001600288020188555050505b505050505050565b610ba78061043a5f395ff3fe608060405234801561000f575f5ffd5b5060043610610055575f3560e01c80632e33f28e1461005957806360c8393d1461008957806381ce2878146100ba578063a61a7f74146100d6578063e593530314610107575b5f5ffd5b610073600480360381019061006e919061054f565b610123565b60405161008091906105ea565b60405180910390f35b6100a3600480360381019061009e9190610664565b6101bd565b6040516100b19291906106a2565b60405180910390f35b6100d460048036038101906100cf9190610803565b6102f4565b005b6100f060048036038101906100eb919061054f565b61034c565b6040516100fe9291906106a2565b60405180910390f35b610121600480360381019061011c9190610803565b610478565b005b5f602052805f5260405f205f91509050805461013e906108b8565b80601f016020809104026020016040519081016040528092919081815260200182805461016a906108b8565b80156101b55780601f1061018c576101008083540402835291602001916101b5565b820191905f5260205f20905b81548152906001019060200180831161019857829003601f168201915b505050505081565b6002602052815f5260405f20602052805f5260405f205f9150915050805f0180546101e7906108b8565b80601f0160208091040260200160405190810160405280929190818152602001828054610213906108b8565b801561025e5780601f106102355761010080835404028352916020019161025e565b820191905f5260205f20905b81548152906001019060200180831161024157829003601f168201915b505050505090806001018054610273906108b8565b80601f016020809104026020016040519081016040528092919081815260200182805461029f906108b8565b80156102ea5780601f106102c1576101008083540402835291602001916102ea565b820191905f5260205f20905b8154815290600101906020018083116102cd57829003601f168201915b5050505050905082565b60405180604001604052808381526020018281525060015f8581526020019081526020015f205f820151815f01908161032d9190610aa2565b5060208201518160010190816103439190610aa2565b50905050505050565b6001602052805f5260405f205f91509050805f01805461036b906108b8565b80601f0160208091040260200160405190810160405280929190818152602001828054610397906108b8565b80156103e25780601f106103b9576101008083540402835291602001916103e2565b820191905f5260205f20905b8154815290600101906020018083116103c557829003601f168201915b5050505050908060010180546103f7906108b8565b80601f0160208091040260200160405190810160405280929190818152602001828054610423906108b8565b801561046e5780601f106104455761010080835404028352916020019161046e565b820191905f5260205f20905b81548152906001019060200180831161045157829003601f168201915b5050505050905082565b60405180604001604052808381526020018281525060025f3373ffffffffffffffffffffffffffffffffffffffff1673ffffffffffffffffffffffffffffffffffffffff1681526020019081526020015f205f8581526020019081526020015f205f820151815f0190816104ec9190610aa2565b5060208201518160010190816105029190610aa2565b50905050505050565b5f604051905090565b5f5ffd5b5f5ffd5b5f819050919050565b61052e8161051c565b8114610538575f5ffd5b50565b5f8135905061054981610525565b92915050565b5f6020828403121561056457610563610514565b5b5f6105718482850161053b565b91505092915050565b5f81519050919050565b5f82825260208201905092915050565b8281835e5f83830152505050565b5f601f19601f8301169050919050565b5f6105bc8261057a565b6105c68185610584565b93506105d6818560208601610594565b6105df816105a2565b840191505092915050565b5f6020820190508181035f83015261060281846105b2565b905092915050565b5f73ffffffffffffffffffffffffffffffffffffffff82169050919050565b5f6106338261060a565b9050919050565b61064381610629565b811461064d575f5ffd5b50565b5f8135905061065e8161063a565b92915050565b5f5f6040838503121561067a57610679610514565b5b5f61068785828601610650565b92505060206106988582860161053b565b9150509250929050565b5f6040820190508181035f8301526106ba81856105b2565b905081810360208301526106ce81846105b2565b90509392505050565b5f5ffd5b5f5ffd5b7f4e487b71000000000000000000000000000000000000000000000000000000005f52604160045260245ffd5b610715826105a2565b810181811067ffffffffffffffff82111715610734576107336106df565b5b80604052505050565b5f61074661050b565b9050610752828261070c565b919050565b5f67ffffffffffffffff821115610771576107706106df565b5b61077a826105a2565b9050602081019050919050565b828183375f83830152505050565b5f6107a76107a284610757565b61073d565b9050828152602081018484840111156107c3576107c26106db565b5b6107ce848285610787565b509392505050565b5f82601f8301126107ea576107e96106d7565b5b81356107fa848260208601610795565b91505092915050565b5f5f5f6060848603121561081a57610819610514565b5b5f6108278682870161053b565b935050602084013567ffffffffffffffff81111561084857610847610518565b5b610854868287016107d6565b925050604084013567ffffffffffffffff81111561087557610874610518565b5b610881868287016107d6565b9150509250925092565b7f4e487b71000000000000000000000000000000000000000000000000000000005f52602260045260245ffd5b5f60028204905060018216806108cf57607f821691505b6020821081036108e2576108e161088b565b5b50919050565b5f819050815f5260205f209050919050565b5f6020601f8301049050919050565b5f82821b905092915050565b5f600883026109447fffffffffffffffffffffffffffffffffffffffffffffffffffffffffffffffff82610909565b61094e8683610909565b95508019841693508086168417925050509392505050565b5f819050919050565b5f819050919050565b5f61099261098d61098884610966565b61096f565b610966565b9050919050565b5f819050919050565b6109ab83610978565b6109bf6109b782610999565b848454610915565b825550505050565b5f5f905090565b6109d66109c7565b6109e18184846109a2565b505050565b5f5b82811015610a07576109fc5f8284016109ce565b6001810190506109e8565b505050565b601f821115610a5a5782821115610a5957610a26816108e8565b610a2f836108fa565b610a38856108fa565b6020861015610a45575f90505b808301610a54828403826109e6565b505050505b5b505050565b5f82821c905092915050565b5f610a7a5f1984600802610a5f565b1980831691505092915050565b5f610a928383610a6b565b9150826002028217905092915050565b610aab8261057a565b67ffffffffffffffff811115610ac457610ac36106df565b5b610ace82546108b8565b610ad9828285610a0c565b5f60209050601f831160018114610b0a575f8415610af8578287015190505b610b028582610a87565b865550610b69565b601f198416610b18866108e8565b5f5b82811015610b3f57848901518255600182019150602085019450602081019050610b1a565b86831015610b5c5784890151610b58601f891682610a6b565b8355505b6001600288020188555050505b50505050505056fea2646970667358221220f0212fa13913388139605b3b707f6aac0671ec1745c755451524157cb4a9150464736f6c63430008210033","linkReferences":{}},"methodIdentifiers":{"addBook(int256,string,string)":"81ce2878","addMyBook(int256,string,string)":"e5935303","books(int256)":"a61a7f74","myBook(address,int256)":"60c8393d","names(int256)":"2e33f28e"},"id":22}