{"abi":[{"type":"constructor","inputs":[],"stateMutability":"nonpayable"},{"type":"function","name":"book","inputs":[],"outputs":[],"stateMutability":"payable"},{"type":"function","name":"owner","inputs":[],"outputs":[{"name":"","type":"address","internalType":"address payable"}],"stateMutability":"view"},{"type":"event","name":"Occupy","inputs":[{"name":"_occupant","type":"address","indexed":false,"internalType":"address"},{"name":"_value","type":"uint256","indexed":false,"internalType":"uint256"}],"anonymous":false}],"bytecode":{"object":"0x6080604052348015600e575f5ffd5b50335f60016101000a81548173ffffffffffffffffffffffffffffffffffffffff021916908373ffffffffffffffffffffffffffffffffffffffff1602179055505f5f5f6101000a81548160ff02191690836001811115606f57606e6078565b5b021790555060a5565b7f4e487b71000000000000000000000000000000000000000000000000000000005f52602160045260245ffd5b610516806100b25f395ff3fe608060405260043610610028575f3560e01c806305a8da721461002c5780638da5cb5b14610036575b5f5ffd5b610034610060565b005b348015610041575f5ffd5b5061004a61024e565b60405161005791906102b2565b60405180910390f35b5f6001811115610073576100726102cb565b5b5f5f9054906101000a900460ff166001811115610093576100926102cb565b5b146100d3576040517f08c379a00000000000000000000000000000000000000000000000000000000081526004016100ca90610352565b60405180910390fd5b671bc16d674ec800008034101561011f576040517f08c379a0000000000000000000000000000000000000000000000000000000008152600401610116906103ba565b60405180910390fd5b5f5f60019054906101000a900473ffffffffffffffffffffffffffffffffffffffff1673ffffffffffffffffffffffffffffffffffffffff163460405161016590610405565b5f6040518083038185875af1925050503d805f811461019f576040519150601f19603f3d011682016040523d82523d5f602084013e6101a4565b606091505b50509050806101e8576040517f08c379a00000000000000000000000000000000000000000000000000000000081526004016101df90610463565b60405180910390fd5b60015f5f6101000a81548160ff0219169083600181111561020c5761020b6102cb565b5b02179055507fba951166d42eb077151bdecb7cf6027562f04f0143b0c141b1bb0a33eef5d69333346040516102429291906104b9565b60405180910390a15050565b5f60019054906101000a900473ffffffffffffffffffffffffffffffffffffffff1681565b5f73ffffffffffffffffffffffffffffffffffffffff82169050919050565b5f61029c82610273565b9050919050565b6102ac81610292565b82525050565b5f6020820190506102c55f8301846102a3565b92915050565b7f4e487b71000000000000000000000000000000000000000000000000000000005f52602160045260245ffd5b5f82825260208201905092915050565b7f43757272656e746c79204f6363757069656400000000000000000000000000005f82015250565b5f61033c6012836102f8565b915061034782610308565b602082019050919050565b5f6020820190508181035f83015261036981610330565b9050919050565b7f4e6f7420456e6f756768204574686572000000000000000000000000000000005f82015250565b5f6103a46010836102f8565b91506103af82610370565b602082019050919050565b5f6020820190508181035f8301526103d181610398565b9050919050565b5f81905092915050565b50565b5f6103f05f836103d8565b91506103fb826103e2565b5f82019050919050565b5f61040f826103e5565b9150819050919050565b7f4574686572207472616e73666572206661696c656400000000000000000000005f82015250565b5f61044d6015836102f8565b915061045882610419565b602082019050919050565b5f6020820190508181035f83015261047a81610441565b9050919050565b5f61048b82610273565b9050919050565b61049b81610481565b82525050565b5f819050919050565b6104b3816104a1565b82525050565b5f6040820190506104cc5f830185610492565b6104d960208301846104aa565b939250505056fea26469706673582212208df8e4a35ab552931ad5f218a496a3b71552469543f955bf4a2af42bd37e915364736f6c63430008210033","linkReferences":{}},"methodIdentifiers":{"book()":"05a8da72","owner()":"8da5cb5b"},"id":24}