{"abi":[{"type":"function","name":"checkNumber","inputs":[],"outputs":[],"stateMutability":"view"},{"type":"function","name":"isEvenNumber","inputs":[{"name":"_number","type":"uint256","internalType":"uint256"}],"outputs":[{"name":"","type":"bool","internalType":"bool"}],"stateMutability":"pure"},{"type":"function","name":"isOwner","inputs":[],"outputs":[],"stateMutability":"view"},{"type":"function","name":"numbers","inputs":[{"name":"","type":"uint256","internalType":"uint256"}],"outputs":[{"name":"","type":"uint256","internalType":"uint256"}],"stateMutability":"view"}],"bytecode":{"object":"0x6080604052335f5f6101000a81548173ffffffffffffffffffffffffffffffffffffffff021916908373ffffffffffffffffffffffffffffffffffffffff160217905550604051806101400160405280600160ff168152602001600260ff168152602001600360ff168152602001600460ff168152602001600560ff168152602001600660ff168152602001600760ff168152602001600860ff168152602001600960ff168152602001600a60ff16815250600190816100bf91906102d6565b503480156100cb575f5ffd5b5061035a565b7f4e487b71000000000000000000000000000000000000000000000000000000005f52604160045260245ffd5b5f81549050919050565b5f819050919050565b5f8190506001806001038301049050919050565b5f819050815f5260205f209050919050565b5f82821b905092915050565b5f600883026101727fffffffffffffffffffffffffffffffffffffffffffffffffffffffffffffffff82610137565b61017c8683610137565b95508019841693508086168417925050509392505050565b5f819050919050565b5f6101b76101b26101ad84610108565b610194565b610108565b9050919050565b5f819050919050565b6101d08361019d565b6101e46101dc826101be565b848454610143565b825550505050565b5f5f905090565b6101fb6101ec565b6102068184846101c7565b505050565b5f5b8281101561022c576102215f8284016101f3565b60018101905061020d565b505050565b818310156102685761024282610111565b61024b84610111565b61025483610125565b8181016102638385038261020b565b505050505b505050565b68010000000000000000821115610287576102866100d1565b5b610290816100fe565b82825561029e838284610231565b505050565b5f600a9050919050565b5f60ff82169050919050565b5f6102c482516102ad565b80915050919050565b5f819050919050565b6102df826102a3565b67ffffffffffffffff8111156102f8576102f76100d1565b5b610302818361026d565b61030b836102cd565b61031483610125565b600183045f5b81811015610351575f61032c856102b9565b610335816101be565b809250602087019650505080828501555060018101905061031a565b50505050505050565b6106c3806103675f395ff3fe608060405234801561000f575f5ffd5b506004361061004a575f3560e01c80634758b9cd1461004e5780638f32d59b14610058578063d39fa23314610062578063e5054c6914610092575b5f5ffd5b6100566100c2565b005b6100606101ca565b005b61007c60048036038101906100779190610492565b6102a1565b60405161008991906104cc565b60405180910390f35b6100ac60048036038101906100a79190610492565b6102c1565b6040516100b991906104ff565b60405180910390f35b5f5f90505b6001805490508110156101c7576100f9600182815481106100eb576100ea610518565b5b905f5260205f2001546102c1565b1561015e576101596001828154811061011557610114610518565b5b905f5260205f2001546040518060400160405280600e81526020017f6973204576656e204e756d6265720000000000000000000000000000000000008152506102d8565b6101ba565b6101b96001828154811061017557610174610518565b5b905f5260205f2001546040518060400160405280600d81526020017f6973204f6464204e756d626572000000000000000000000000000000000000008152506102d8565b5b80806001019150506100c7565b50565b5f5f9054906101000a900473ffffffffffffffffffffffffffffffffffffffff1673ffffffffffffffffffffffffffffffffffffffff163373ffffffffffffffffffffffffffffffffffffffff16036102605761025b6040518060400160405280601b81526020017f4f776e65722043616c6c696e6720746869732046756e6374696f6e0000000000815250610374565b61029f565b61029e6040518060400160405280601e81526020017f4f757473696465722043616c6c696e6720746869732066756e6374696f6e0000815250610374565b5b565b600181815481106102b0575f80fd5b905f5260205f20015f915090505481565b5f5f6002836102d09190610572565b149050919050565b61037082826040516024016102ee929190610612565b6040516020818303038152906040527f643fd0df000000000000000000000000000000000000000000000000000000007bffffffffffffffffffffffffffffffffffffffffffffffffffffffff19166020820180517bffffffffffffffffffffffffffffffffffffffffffffffffffffffff838183161783525050505061040d565b5050565b61040a816040516024016103889190610640565b6040516020818303038152906040527f41304fac000000000000000000000000000000000000000000000000000000007bffffffffffffffffffffffffffffffffffffffffffffffffffffffff19166020820180517bffffffffffffffffffffffffffffffffffffffffffffffffffffffff838183161783525050505061040d565b50565b6104248161041c610427610446565b63ffffffff16565b50565b5f6a636f6e736f6c652e6c6f6790505f5f835160208501845afa505050565b610451819050919050565b610459610660565b565b5f5ffd5b5f819050919050565b6104718161045f565b811461047b575f5ffd5b50565b5f8135905061048c81610468565b92915050565b5f602082840312156104a7576104a661045b565b5b5f6104b48482850161047e565b91505092915050565b6104c68161045f565b82525050565b5f6020820190506104df5f8301846104bd565b92915050565b5f8115159050919050565b6104f9816104e5565b82525050565b5f6020820190506105125f8301846104f0565b92915050565b7f4e487b71000000000000000000000000000000000000000000000000000000005f52603260045260245ffd5b7f4e487b71000000000000000000000000000000000000000000000000000000005f52601260045260245ffd5b5f61057c8261045f565b91506105878361045f565b92508261059757610596610545565b5b828206905092915050565b5f81519050919050565b5f82825260208201905092915050565b8281835e5f83830152505050565b5f601f19601f8301169050919050565b5f6105e4826105a2565b6105ee81856105ac565b93506105fe8185602086016105bc565b610607816105ca565b840191505092915050565b5f6040820190506106255f8301856104bd565b818103602083015261063781846105da565b90509392505050565b5f6020820190508181035f83015261065881846105da565b905092915050565b7f4e487b71000000000000000000000000000000000000000000000000000000005f52605160045260245ffdfea2646970667358221220111ec9815d2bcb235725f0a45aa23497970f6cff6b81bbcd3ab89173bdd5826d64736f6c63430008210033","linkReferences":{}},"methodIdentifiers":{"checkNumber()":"4758b9cd","isEvenNumber(uint256)":"e5054c69","isOwner()":"8f32d59b","numbers(uint256)":"d39fa233"},"id":23}