{"abi":[{"type":"constructor","inputs":[],"stateMutability":"nonpayable"},{"type":"function","name":"count","inputs":[],"outputs":[{"name":"","type":"uint8","internalType":"uint8"}],"stateMutability":"view"},{"type":"function","name":"incrementCount","inputs":[],"outputs":[],"stateMutability":"nonpayable"},{"type":"function","name":"number","inputs":[],"outputs":[{"name":"","type":"uint8","internalType":"uint8"}],"stateMutability":"view"}],"bytecode":{"object":"0x6080604052600a5f60016101000a81548160ff021916908360ff1602179055503480156029575f5ffd5b5060805f5f6101000a81548160ff021916908360ff16021790555061027b806100515f395ff3fe608060405234801561000f575f5ffd5b506004361061003f575f3560e01c806306661abd146100435780638381f58a14610061578063e5071b8e1461007f575b5f5ffd5b61004b610089565b6040516100589190610153565b60405180910390f35b61006961009a565b6040516100769190610153565b60405180910390f35b6100876100ac565b005b5f5f9054906101000a900460ff1681565b5f60019054906101000a900460ff1681565b60ff80165f5f9054906101000a900460ff1660ff1610610101576040517f08c379a00000000000000000000000000000000000000000000000000000000081526004016100f8906101c6565b60405180910390fd5b60015f5f8282829054906101000a900460ff1661011e9190610211565b92506101000a81548160ff021916908360ff160217905550565b5f60ff82169050919050565b61014d81610138565b82525050565b5f6020820190506101665f830184610144565b92915050565b5f82825260208201905092915050565b7f6f766572666c6f770000000000000000000000000000000000000000000000005f82015250565b5f6101b060088361016c565b91506101bb8261017c565b602082019050919050565b5f6020820190508181035f8301526101dd816101a4565b9050919050565b7f4e487b71000000000000000000000000000000000000000000000000000000005f52601160045260245ffd5b5f61021b82610138565b915061022683610138565b9250828201905060ff81111561023f5761023e6101e4565b5b9291505056fea2646970667358221220af92e0b32b66ee454e787a1b781cb27838bd220493b2be034a68709a20c1865d64736f6c63430008210033","linkReferences":{}},"methodIdentifiers":{"count()":"06661abd","incrementCount()":"e5071b8e","number()":"8381f58a"},"id":19}