{"abi":[{"type":"constructor","inputs":[{"name":"_secret","type":"string","internalType":"string"}],"stateMutability":"nonpayable"},{"type":"function","name":"getSecret","inputs":[],"outputs":[{"name":"","type":"string","internalType":"string"}],"stateMutability":"view"},{"type":"function","name":"owner","inputs":[],"outputs":[{"name":"","type":"address","internalType":"address"}],"stateMutability":"view"}],"bytecode":{"object":"0x608060405234801561000f575f5ffd5b50604051610e99380380610e9983398181016040528101906100319190610245565b335f5f6101000a81548173ffffffffffffffffffffffffffffffffffffffff021916908373ffffffffffffffffffffffffffffffffffffffff1602179055505f8160405161007e906100eb565b61008891906102de565b604051809103905ff0801580156100a1573d5f5f3e3d5ffd5b5090508060015f6101000a81548173ffffffffffffffffffffffffffffffffffffffff021916908373ffffffffffffffffffffffffffffffffffffffff16021790555050506102fe565b6106d4806107c583390190565b5f604051905090565b5f5ffd5b5f5ffd5b5f5ffd5b5f5ffd5b5f601f19601f8301169050919050565b7f4e487b71000000000000000000000000000000000000000000000000000000005f52604160045260245ffd5b61015782610111565b810181811067ffffffffffffffff8211171561017657610175610121565b5b80604052505050565b5f6101886100f8565b9050610194828261014e565b919050565b5f67ffffffffffffffff8211156101b3576101b2610121565b5b6101bc82610111565b9050602081019050919050565b8281835e5f83830152505050565b5f6101e96101e484610199565b61017f565b9050828152602081018484840111156102055761020461010d565b5b6102108482856101c9565b509392505050565b5f82601f83011261022c5761022b610109565b5b815161023c8482602086016101d7565b91505092915050565b5f6020828403121561025a57610259610101565b5b5f82015167ffffffffffffffff81111561027757610276610105565b5b61028384828501610218565b91505092915050565b5f81519050919050565b5f82825260208201905092915050565b5f6102b08261028c565b6102ba8185610296565b93506102ca8185602086016101c9565b6102d381610111565b840191505092915050565b5f6020820190508181035f8301526102f681846102a6565b905092915050565b6104ba8061030b5f395ff3fe608060405234801561000f575f5ffd5b5060043610610034575f3560e01c80635b9fdc30146100385780638da5cb5b14610056575b5f5ffd5b610040610074565b60405161004d919061022e565b60405180910390f35b61005e61019a565b60405161006b919061028d565b60405180910390f35b60605f5f9054906101000a900473ffffffffffffffffffffffffffffffffffffffff1673ffffffffffffffffffffffffffffffffffffffff163373ffffffffffffffffffffffffffffffffffffffff1614610104576040517f08c379a00000000000000000000000000000000000000000000000000000000081526004016100fb906102f0565b60405180910390fd5b60015f9054906101000a900473ffffffffffffffffffffffffffffffffffffffff1673ffffffffffffffffffffffffffffffffffffffff16635b9fdc306040518163ffffffff1660e01b81526004015f60405180830381865afa15801561016d573d5f5f3e3d5ffd5b505050506040513d5f823e3d601f19601f82011682018060405250810190610195919061043d565b905090565b5f5f9054906101000a900473ffffffffffffffffffffffffffffffffffffffff1681565b5f81519050919050565b5f82825260208201905092915050565b8281835e5f83830152505050565b5f601f19601f8301169050919050565b5f610200826101be565b61020a81856101c8565b935061021a8185602086016101d8565b610223816101e6565b840191505092915050565b5f6020820190508181035f83015261024681846101f6565b905092915050565b5f73ffffffffffffffffffffffffffffffffffffffff82169050919050565b5f6102778261024e565b9050919050565b6102878161026d565b82525050565b5f6020820190506102a05f83018461027e565b92915050565b7f4d757374206265204f776e6572000000000000000000000000000000000000005f82015250565b5f6102da600d836101c8565b91506102e5826102a6565b602082019050919050565b5f6020820190508181035f830152610307816102ce565b9050919050565b5f604051905090565b5f5ffd5b5f5ffd5b5f5ffd5b5f5ffd5b7f4e487b71000000000000000000000000000000000000000000000000000000005f52604160045260245ffd5b61035d826101e6565b810181811067ffffffffffffffff8211171561037c5761037b610327565b5b80604052505050565b5f61038e61030e565b905061039a8282610354565b919050565b5f67ffffffffffffffff8211156103b9576103b8610327565b5b6103c2826101e6565b9050602081019050919050565b5f6103e16103dc8461039f565b610385565b9050828152602081018484840111156103fd576103fc610323565b5b6104088482856101d8565b509392505050565b5f82601f8301126104245761042361031f565b5b81516104348482602086016103cf565b91505092915050565b5f6020828403121561045257610451610317565b5b5f82015167ffffffffffffffff81111561046f5761046e61031b565b5b61047b84828501610410565b9150509291505056fea264697066735822122037302ec6395de4b50d6dbb269475edf6959e9652a0d0b8033d27e82479fb42f164736f6c63430008210033608060405234801561000f575f5ffd5b506040516106d43803806106d483398181016040528101906100319190610193565b805f908161003f91906103fb565b50506104ca565b5f604051905090565b5f5ffd5b5f5ffd5b5f5ffd5b5f5ffd5b5f601f19601f8301169050919050565b7f4e487b71000000000000000000000000000000000000000000000000000000005f52604160045260245ffd5b6100a58261005f565b810181811067ffffffffffffffff821117156100c4576100c361006f565b5b80604052505050565b5f6100d6610046565b90506100e2828261009c565b919050565b5f67ffffffffffffffff8211156101015761010061006f565b5b61010a8261005f565b9050602081019050919050565b8281835e5f83830152505050565b5f610137610132846100e7565b6100cd565b9050828152602081018484840111156101535761015261005b565b5b61015e848285610117565b509392505050565b5f82601f83011261017a57610179610057565b5b815161018a848260208601610125565b91505092915050565b5f602082840312156101a8576101a761004f565b5b5f82015167ffffffffffffffff8111156101c5576101c4610053565b5b6101d184828501610166565b91505092915050565b5f81519050919050565b7f4e487b71000000000000000000000000000000000000000000000000000000005f52602260045260245ffd5b5f600282049050600182168061022857607f821691505b60208210810361023b5761023a6101e4565b5b50919050565b5f819050815f5260205f209050919050565b5f6020601f8301049050919050565b5f82821b905092915050565b5f6008830261029d7fffffffffffffffffffffffffffffffffffffffffffffffffffffffffffffffff82610262565b6102a78683610262565b95508019841693508086168417925050509392505050565b5f819050919050565b5f819050919050565b5f6102eb6102e66102e1846102bf565b6102c8565b6102bf565b9050919050565b5f819050919050565b610304836102d1565b610318610310826102f2565b84845461026e565b825550505050565b5f5f905090565b61032f610320565b61033a8184846102fb565b505050565b5f5b82811015610360576103555f828401610327565b600181019050610341565b505050565b601f8211156103b357828211156103b25761037f81610241565b61038883610253565b61039185610253565b602086101561039e575f90505b8083016103ad8284038261033f565b505050505b5b505050565b5f82821c905092915050565b5f6103d35f19846008026103b8565b1980831691505092915050565b5f6103eb83836103c4565b9150826002028217905092915050565b610404826101da565b67ffffffffffffffff81111561041d5761041c61006f565b5b6104278254610211565b610432828285610365565b5f60209050601f831160018114610463575f8415610451578287015190505b61045b85826103e0565b8655506104c2565b601f19841661047186610241565b5f5b8281101561049857848901518255600182019150602085019450602081019050610473565b868310156104b557848901516104b1601f8916826103c4565b8355505b6001600288020188555050505b505050505050565b6101fd806104d75f395ff3fe608060405234801561000f575f5ffd5b5060043610610029575f3560e01c80635b9fdc301461002d575b5f5ffd5b61003561004b565b604051610042919061014a565b60405180910390f35b60605f805461005990610197565b80601f016020809104026020016040519081016040528092919081815260200182805461008590610197565b80156100d05780601f106100a7576101008083540402835291602001916100d0565b820191905f5260205f20905b8154815290600101906020018083116100b357829003601f168201915b5050505050905090565b5f81519050919050565b5f82825260208201905092915050565b8281835e5f83830152505050565b5f601f19601f8301169050919050565b5f61011c826100da565b61012681856100e4565b93506101368185602086016100f4565b61013f81610102565b840191505092915050565b5f6020820190508181035f8301526101628184610112565b905092915050565b7f4e487b71000000000000000000000000000000000000000000000000000000005f52602260045260245ffd5b5f60028204905060018216806101ae57607f821691505b6020821081036101c1576101c061016a565b5b5091905056fea264697066735822122002cdc7b87544df5fae8b15837dd98d013c85c3ce15a66a25f0a875ffc129cf6564736f6c63430008210033","linkReferences":{}},"methodIdentifiers":{"getSecret()":"5b9fdc30","owner()":"8da5cb5b"},"id":25}