{"abi":[{"type":"function","name":"addValue","inputs":[],"outputs":[],"stateMutability":"nonpayable"},{"type":"function","name":"myArray","inputs":[{"name":"","type":"uint256","internalType":"uint256"}],"outputs":[{"name":"","type":"uint256","internalType":"uint256"}],"stateMutability":"view"},{"type":"function","name":"myNames","inputs":[{"name":"","type":"uint256","internalType":"uint256"}],"outputs":[{"name":"","type":"string","internalType":"string"}],"stateMutability":"view"},{"type":"function","name":"myStringArray","inputs":[{"name":"","type":"uint256","internalType":"uint256"}],"outputs":[{"name":"","type":"string","internalType":"string"}],"stateMutability":"view"},{"type":"function","name":"two_Array","inputs":[{"name":"","type":"uint256","internalType":"uint256"},{"name":"","type":"uint256","internalType":"uint256"}],"outputs":[{"name":"","type":"uint256","internalType":"uint256"}],"stateMutability":"view"}],"bytecode":{"object":"0x60806040526040518060600160405280600160ff168152602001600260ff168152602001600360ff168152505f908161003891906103fb565b5060405180606001604052806040518060400160405280600581526020017f41646e616e00000000000000000000000000000000000000000000000000000081525081526020016040518060400160405280600881526020017f416264756c6c616800000000000000000000000000000000000000000000000081525081526020016040518060400160405280600481526020017f736164690000000000000000000000000000000000000000000000000000000081525081525060019081610101919061095a565b5060405180606001604052806040518060600160405280600160ff168152602001600260ff168152602001600360ff1681525081526020016040518060600160405280600460ff168152602001600560ff168152602001600660ff1681525081526020016040518060600160405280600760ff168152602001600860ff168152602001600960ff168152508152506003908161019d9190610ad9565b503480156101a9575f5ffd5b50610b3b565b7f4e487b71000000000000000000000000000000000000000000000000000000005f52604160045260245ffd5b5f81549050919050565b5f819050919050565b5f8190506001806001038301049050919050565b5f819050815f5260205f209050919050565b5f82821b905092915050565b5f600883026102507fffffffffffffffffffffffffffffffffffffffffffffffffffffffffffffffff82610215565b61025a8683610215565b95508019841693508086168417925050509392505050565b5f819050919050565b5f61029561029061028b846101e6565b610272565b6101e6565b9050919050565b5f819050919050565b6102ae8361027b565b6102c26102ba8261029c565b848454610221565b825550505050565b5f5f905090565b6102d96102ca565b6102e48184846102a5565b505050565b5f5b8281101561030a576102ff5f8284016102d1565b6001810190506102eb565b505050565b5f82821c905092915050565b61034b7fffffffffffffffffffffffffffffffffffffffffffffffffffffffffffffffff8360200360080261030f565b815481168255505050565b8183101561038d57610367826101ef565b610370846101ef565b61037983610203565b818101610388838503826102e9565b505050505b505050565b680100000000000000008211156103ac576103ab6101af565b5b6103b5816101dc565b8282556103c3838284610356565b505050565b5f60039050919050565b5f60ff82169050919050565b5f6103e982516103d2565b80915050919050565b5f819050919050565b610404826103c8565b67ffffffffffffffff81111561041d5761041c6101af565b5b6104278183610392565b610430836103f2565b61043983610203565b600183045f5b81811015610476575f610451856103de565b61045a8161029c565b809250602087019650505080828501555060018101905061043f565b50505050505050565b5f819050919050565b5f81549050919050565b5f8190506001806001038301049050919050565b5f819050815f5260205f209050919050565b7f4e487b71000000000000000000000000000000000000000000000000000000005f52602260045260245ffd5b5f60028204905060018216806104fc57607f821691505b60208210810361050f5761050e6104b8565b5b50919050565b5f819050815f5260205f209050919050565b5f5b828110156105485761053d5f8284016102d1565b600181019050610529565b505050565b5f61055c5f198460080261030f565b1980831691505092915050565b5f610574838361054d565b9150826002028217905092915050565b61058d81610515565b610598838254610569565b8083555f825550505050565b5f6020601f8301049050919050565b602084105f811461060e57601f8411600181146105db576105d48685610569565b8355610608565b6105e483610515565b6105fc60016105f2886105a4565b0360018301610527565b6106068785610584565b505b50610668565b610617856105a4565b610620856105a4565b61062984610515565b828101601f8916801561064457610643816001840361031b565b5b848411156106595761065885850383610527565b5b60018a60020217875550505050505b5050505050565b68010000000000000000841115610689576106886101af565b5b602083105f81146106d257602085105f81146106b0576106a98685610569565b83556106cc565b8360ff19169350836106c184610515565b556001866002020183555b506106dc565b6001856002020182555b5050505050565b80546106ee816104e5565b80841115610703576107028482848661066f565b5b8084101561071857610717848284866105b3565b5b50505050565b6107285f826106e3565b50565b7f4e487b71000000000000000000000000000000000000000000000000000000005f525f60045260245ffd5b5f82146107675761076661072b565b5b6107708161071e565b5050565b5f5b828110156107955761078a5f828401610757565b600181019050610776565b505050565b818310156107d1576107ab82610492565b6107b484610492565b6107bd836104a6565b8181016107cc83850382610774565b505050505b505050565b680100000000000000008211156107f0576107ef6101af565b5b6107f981610488565b82825561080783828461079a565b505050565b5f60039050919050565b5f81519050919050565b5f81519050919050565b601f82111561087857828211156108775761084481610515565b61084d836105a4565b610856856105a4565b6020861015610863575f90505b80830161087282840382610527565b505050505b5b505050565b61088682610820565b67ffffffffffffffff81111561089f5761089e6101af565b5b6108a982546104e5565b6108b482828561082a565b5f60209050601f8311600181146108e5575f84156108d3578287015190505b6108dd8582610569565b865550610944565b601f1984166108f386610515565b5f5b8281101561091a578489015182556001820191506020850194506020810190506108f5565b868310156109375784890151610933601f89168261054d565b8355505b6001600288020188555050505b505050505050565b610956828261087d565b5050565b6109638261080c565b61096d81836107d6565b6109768361047f565b61097f836104a6565b5f5b838110156109b45761099283610816565b61099c818461094c565b60208401935060018301925050600181019050610981565b505050505050565b5f819050919050565b5f81549050919050565b5f8190506001806001038301049050919050565b5f819050815f5260205f209050919050565b6109ff5f82610392565b50565b5f8214610a1257610a1161072b565b5b610a1b816109f5565b5050565b5f5b82811015610a4057610a355f828401610a02565b600181019050610a21565b505050565b81831015610a7c57610a56826109cf565b610a5f846109cf565b610a68836109e3565b818101610a7783850382610a1f565b505050505b505050565b68010000000000000000821115610a9b57610a9a6101af565b5b610aa4816109c5565b828255610ab2838284610a45565b505050565b5f60039050919050565b5f81519050919050565b610ad582826103fb565b5050565b610ae282610ab7565b610aec8183610a81565b610af5836109bc565b610afe836109e3565b5f5b83811015610b3357610b1183610ac1565b610b1b8184610acb565b60208401935060018301925050600181019050610b00565b505050505050565b61084c80610b485f395ff3fe608060405234801561000f575f5ffd5b5060043610610055575f3560e01c8063040f0aee14610059578063089fdc7d14610063578063aa3546d914610093578063cc3e57d9146100c3578063f1bbe63e146100f3575b5f5ffd5b610061610123565b005b61007d600480360381019061007891906103eb565b610213565b60405161008a9190610486565b60405180910390f35b6100ad60048036038101906100a891906103eb565b6102b9565b6040516100ba9190610486565b60405180910390f35b6100dd60048036038101906100d891906103eb565b61035f565b6040516100ea91906104b5565b60405180910390f35b61010d600480360381019061010891906104ce565b61037e565b60405161011a91906104b5565b60405180910390f35b5f6005908060018154018082558091505060019003905f5260205f20015f909190919091505560028060018154018082558091505060019003905f5260205f20015f6040518060400160405280600481526020017f7361646900000000000000000000000000000000000000000000000000000000815250909190915090816101ac9190610747565b5060028060018154018082558091505060019003905f5260205f20015f6040518060400160405280600881526020017f416264756c6c6168000000000000000000000000000000000000000000000000815250909190915090816102109190610747565b50565b60028181548110610222575f80fd5b905f5260205f20015f91509050805461023a90610566565b80601f016020809104026020016040519081016040528092919081815260200182805461026690610566565b80156102b15780601f10610288576101008083540402835291602001916102b1565b820191905f5260205f20905b81548152906001019060200180831161029457829003601f168201915b505050505081565b600181815481106102c8575f80fd5b905f5260205f20015f9150905080546102e090610566565b80601f016020809104026020016040519081016040528092919081815260200182805461030c90610566565b80156103575780601f1061032e57610100808354040283529160200191610357565b820191905f5260205f20905b81548152906001019060200180831161033a57829003601f168201915b505050505081565b5f818154811061036d575f80fd5b905f5260205f20015f915090505481565b6003828154811061038d575f80fd5b905f5260205f200181815481106103a2575f80fd5b905f5260205f20015f91509150505481565b5f5ffd5b5f819050919050565b6103ca816103b8565b81146103d4575f5ffd5b50565b5f813590506103e5816103c1565b92915050565b5f60208284031215610400576103ff6103b4565b5b5f61040d848285016103d7565b91505092915050565b5f81519050919050565b5f82825260208201905092915050565b8281835e5f83830152505050565b5f601f19601f8301169050919050565b5f61045882610416565b6104628185610420565b9350610472818560208601610430565b61047b8161043e565b840191505092915050565b5f6020820190508181035f83015261049e818461044e565b905092915050565b6104af816103b8565b82525050565b5f6020820190506104c85f8301846104a6565b92915050565b5f5f604083850312156104e4576104e36103b4565b5b5f6104f1858286016103d7565b9250506020610502858286016103d7565b9150509250929050565b7f4e487b71000000000000000000000000000000000000000000000000000000005f52604160045260245ffd5b7f4e487b71000000000000000000000000000000000000000000000000000000005f52602260045260245ffd5b5f600282049050600182168061057d57607f821691505b6020821081036105905761058f610539565b5b50919050565b5f819050815f5260205f209050919050565b5f6020601f8301049050919050565b5f82821b905092915050565b5f600883026105f27fffffffffffffffffffffffffffffffffffffffffffffffffffffffffffffffff826105b7565b6105fc86836105b7565b95508019841693508086168417925050509392505050565b5f819050919050565b5f61063761063261062d846103b8565b610614565b6103b8565b9050919050565b5f819050919050565b6106508361061d565b61066461065c8261063e565b8484546105c3565b825550505050565b5f5f905090565b61067b61066c565b610686818484610647565b505050565b5f5b828110156106ac576106a15f828401610673565b60018101905061068d565b505050565b601f8211156106ff57828211156106fe576106cb81610596565b6106d4836105a8565b6106dd856105a8565b60208610156106ea575f90505b8083016106f98284038261068b565b505050505b5b505050565b5f82821c905092915050565b5f61071f5f1984600802610704565b1980831691505092915050565b5f6107378383610710565b9150826002028217905092915050565b61075082610416565b67ffffffffffffffff8111156107695761076861050c565b5b6107738254610566565b61077e8282856106b1565b5f60209050601f8311600181146107af575f841561079d578287015190505b6107a7858261072c565b86555061080e565b601f1984166107bd86610596565b5f5b828110156107e4578489015182556001820191506020850194506020810190506107bf565b8683101561080157848901516107fd601f891682610710565b8355505b6001600288020188555050505b50505050505056fea26469706673582212203b461c58b7d6f067f9447875774b1baae965c02a0d8259906535e7ffabdee63d64736f6c63430008210033","linkReferences":{}},"methodIdentifiers":{"addValue()":"040f0aee","myArray(uint256)":"cc3e57d9","myNames(uint256)":"089fdc7d","myStringArray(uint256)":"aa3546d9","two_Array(uint256,uint256)":"f1bbe63e"},"id":21}